1587123262ABANDO, MA. PILIPINAS P.                00000000274413015800187       
3137020970ABENION, RYAN B.                        00000000199011931300187       
3137021764ABLIAN JR, ARTURO N.                    00000000079996331300187       
3136040625ABRENCILLO, JOSE AMADEO II.             00000000200617231300187       
3137000783ACOSTA, MARICEL P.                      00000000082979331300187       
3137002697AGUADO, ARIEL G.                        00000000063215931300187       
3137033258AGUILLON, MICHAEL JOHN E.               00000000065963831300187       
1587114166ALARCON, NOEL C.                        00000000228292415800187       
3137005327ALBANO, DENNIS M.                       00000000295329531300187       
3137002123ALCAZAR, ANNA LOURDES C.                00000000035327731300187       
3137004673ALMANZAR, GEMMA N.                      00000000201150731300187       
1587123009ALNAS, CARLO E.                         00000000057583815800187       
1587127489ALVAREZ, JOSEPH CHRISTIAN N.            00000000282705115800187       
3137000732ALZONA, PENAFRANCIA M.                  00000000284844031300187       
1587126946AMANO, CHRISTIAN G.                     00000000203129515800187       
3137002840ANGEL, YOLANDA S.                       00000000226498631300187       
3136038531ANTALAN, SHEENA LYNNE L.                00000000000000031300187       
1587127179MACATO, GLOOVY ROSE A                   00000000000000015800187       
3137049448APOSTOL, BERNADETTE CARAH               00000000198455431300187       
3137049324AQUINO, FERRIE C.                       00000000000000031300187       
3137037300AQUINO, MARK MURPHY A.                  00000000021962131300187       
1827289023ARANZANSO, BILLIE A.                    00000000266852918200187       
3137003740ARINDAENG, MARISSA P.                   00000000000000031300187       
1587120832ASUNCION, JANE E.                       00000000160202815800187       
3137044535BACALA, CHARLES JOSEPH B.               00000000000000031300187       
3136040633BACOY, JOEY B.                          00000000286852931300187       
3137036818BADUYA, EMILY ROSE C.                   00000000037596931300187       
1587126997BALBAS, KIMBERLY ANNE M.                00000000048452115800187       
3137001836BALDANZO, LILIBETH M.                   00000000210607331300187       
3137001941BALDERAS, ARTURO R.                     00000000223114331300187       
1587124633BALDO, GLENN M.                         00000000069855615800187       
3137072741BALU, JOSELITO                          00000000000000031300187       
0226507817BANGASAN, ROXANNE C.                    00000000270620502200187       
3137016817BARCO, ADORA G.                         00000000132018331300187       
3137001569BASALLOTE, RAUL B.                      00000000228468031300187       
3137013982BAUN, SHERILL B.                        00000000173460731300187       
1586625370BAUTISTA, BIANCA P.                     00000000114254315800187       
1556187645BAVIERA, DENISE CARLA V.                00000000266392415500187       
3137034661BELLO, ELLEN A.                         00000000064962331300187       
3137033240BELO, CLARO B.                          00000000068116731300187       
3137001364ABAD, RUEL C.                           00000000076407431300187       
0017286226BERMUDEZ, ARLENE V.                     00000000159344600100187       
3137003944BIANAN, VIOLETA F.                      00000000238214831300187       
3137037610BITENG, ZENAIDA B.                      00000000553940531300187       
3137049731BLASQUIÑO, JOHN CARLO A.                00000000042808631300187       
3137000708BONAOBRA, CARLITO A.                    00000000032777531300187       
3137002425BONGON, IMELDA B.                       00000000187130331300187       
3137042184BONIFACIO, JR. BIODOR P.                00000000154663431300187       
1587082671BONILLA, SHERYL C.                      00000000142192815800187       
3137002530BRIONES, DIVINA P.                      00000000064755931300187       
3137002433BRIONES, ESPERIDION C., JR.             00000000042228631300187       
0445081167VENZON, KIMBERLY DYAN B.                00000000000000004400187       
1587115863BUNDALIAN, HIZON                        00000000028724315800187       
3137077808BUZON, CARL JOHN C.                     00000000205150731300187       
1587126938CABACUNGAN, JERICHO V.                  00000000358826215800187       
0126224478CABALSI, EMILIANO S.                    00000000205150701200187       
3137002565CABAUATAN, ORLINO M.                    00000000064402331300187       
3137003596CACHO, MYRNA C.                         00000000000000031300187       
3137056380CAGAYUNGAN, JUDELO D.                   00000000084049731300187       
3137003618CAINGAT, ROSEMARIE M.                   00000000174980831300187       
3137003537CALALO, JOSE P.                         00000000082260631300187       
3137046988CALDERON, DIONICIO D.                   00000000061167231300187       
3137059508CALOT, RICA MAE G.                      00000000053346631300187       
3137012293CAMACHO, REXYLLE V.                     00000000136135431300187       
3137044470CAÑETA, MARIA EDNELYN C.                00000000141500531300187       
3137004754CANLAS, JOEPER M.                       00000000168110631300187       
3137033002CANLAS, WALTER M.                       00000000000000031300187       
1587122428CAOILI, MICHELLE A.                     00000000126407815800187       
1587128795CARAAN, JENNIFER P.                     00000000142348715800187       
3137000643CARBALLO, MA. VIOLETA T.                00000000020040131300187       
3137038900CARLOS, JULIUS C.                       00000000196460731300187       
3137000520CASTANEDA, RANIEL JOSE M.               00000000147941031300187       
3137004150CASTRO, ELISA B.                        00000000064506931300187       
3137050403CECILIO, ELLEN JOYCE O.                 00000000223233631300187       
3137017392CECILIO, EUGENE R.                      00000000354051031300187       
3137049367CERNECHEZ, PHILIP JORDAN D.             00000000042433331300187       
1587129236CIELO, JUAN E.                          00000000139010615800187       
3137042044CINCO, MARIA CELINE G.                  00000000000000031300187       
3137000171CLEMENTE, EDNA O.                       00000000196902331300187       
3136044752CONDEZA, JAYRILL T.                     00000000163086331300187       
3127079357CONSULTA, ANA DOMINIQUE M.              00000000000000031200187       
1587124447CORONEL-DIMAUN, JERRELYN S.             00000000166986115800187       
3137005483CRESPO, RUEL S.                         00000000000000031300187       
3137049383CRISTOBAL, JULIUS ZEASAR S.             00000000168871031300187       
1587114174CRUZ, BERNADETTE M.                     00000000000000015800187       
1587126610CRUZ, JEROME S.                         00000000291852915800187       
3137000198CRUZ, WILFREDO B.                       00000000000000031300187       
3137004827CRUZ, WILFREDO D.                       00000000206940331300187       
3137015187CUMPAS, JR. ZOSIMO A.                   00000000093806331300187       
1587122738CUNANAN, CHRISTOPHER JUSTIN             00000000082341815800187       
3137061820DAGUNO, JOSEPH C.                       00000000051483431300187       
3137038756DAHONOG, RONALYN T.                     00000000163780531300187       
3137004878DANIEL, VALENTINA E.                    00000000025065731300187       
3137018666DAR, RUBEN V.                           00000000030522831300187       
3137059907DAVID, NORBERT                          00000000000000031300187       
1586616125DAYAN, DANICA N.                        00000000000000015800187       
3137042192DAYAO, JOHN PATRICK A.                  00000000171941031300187       
3137003642DE CASTRO, CYNTHIA H.                   00000000212308931300187       
1587113844DE GUZMAN, FLORITA R.                   00000000324840415800187       
3137050853DE LEON III, MANUEL P.                  00000000194808931300187       
1587128752TULABUT, ANNA KATRINA D.                00000000102839015800187       
3137000228DE LEON, LUXMI F.                       00000000118286431300187       
0416230277PRIMAVERA, ELAINE D.                    00000000000000004100187       
3137005785DE VERA, EVELYN P.                      00000000060373131300187       
3137003669DE VERA, OFELIA S.                      00000000302077631300187       
3137005505DE VERA, RODRIGO C.                     00000000205343031300187       
3137003413DELA CRUZ JR., FLORENCIO G.             00000000313428431300187       
0536129944DELA CRUZ, ADELA T.                     00000000320289805300187       
3137038594DELA CRUZ, ARMI CECILIA L.              00000000307889331300187       
3137051000DELA CRUZ, FELICIANO JR. C.             00000000076185031300187       
3137049936DELA CRUZ, GAIL R.                      00000000192989431300187       
3137049871DELA CRUZ, PRECIOUS T.                  00000000110130031300187       
1587115227DELA PEÑA, LAY-AR D                     00000000203368715800187       
3716017191DEOCAMPO, JANE A.                       00000000187438737100187       
1587115162DIAMA, JEOFREY B.                       00000000040617715800187       
1587120298DIMAUN, JOKAS G.                        00000000112525615800187       
3137036834DIZON, RALVEEN R.                       00000000198455431300187       
0226392890DUMAYAG, GERMA B.                       00000000320289802200187       
3137020571DY, RONALD ALLAN R.                     00000000149416431300187       
3137058099CERNECHEZ, MYLENE E.                    00000000074128031300187       
3137004053EMATA, NOLIRENO P.                      00000000000000031300187       
3137001127ENCINARES, BENIGNO R.                   00000000023913931300187       
1525057417ESCOTO, MARY GRACE L.                   00000000147868615200187       
3136041613ESPAÑOL, PAUL CHRISTIAN O.              00000000162277531300187       
3407117505ESTRADA, RINNA LOU P.                   00000000195890734000187       
3137024216EVARDONE, ERIC E.                       00000000280291031300187       
3137042214FAJARDO, JELLY U.                       00000000000000031300187       
3136026738FALLERA, JONEL V.                       00000000039047331300187       
1587121812FAUSTINO, JERICO C.                     00000000000000015800187       
3137016973FELIX, ALEXANDER B.                     00000000275646331300187       
1587120417FERNANDO, EDGAR D.                      00000000134325715800187       
3137038330FLORES, REJEAN D.                       00000000084643231300187       
1587128892FRANCISCO, MA. CONCEPCION               00000000270620515800187       
0256142198LIBRES, JOAN G.                         00000000113626502500187       
3137043644GALLARDO, DANIRIE JOY R.                00000000000000031300187       
3137061995GAMBRAJO, CLEOFE M.                     00000000025976831300187       
3137061359GAPPI, LEONEL ALEXIS H.                 00000000047764931300187       
1587122789GARBO, NYZA L.                          00000000166986115800187       
3137004860GARCIA, ELSA D.                         00000000088258231300187       
1587124048GARCIA, JESSIE O.                       00000000037048415800187       
3137000716GARVIDA, LINETTE M.                     00000000225126531300187       
3137004339GASENDO, NEPTALI JR. B.                 00000000071922731300187       
3137036354GASPAR, FRANCISMO FREDERIC              00000000083712631300187       
3137001607GATCHALIAN, REYNALDO                    00000000000000031300187       
3137002000GEDALANON, FLORDELIZA B.                00000000036005731300187       
2516034591GIRON, ELIAS NEMESIO JOSE A.            00000000203368725100187       
1587105442GOMEZ, PATRICK JOSEPH V.                00000000153340415800187       
3137042079GONZALES, JOHN RICHARD                  00000000134881531300187       
3137049766GONZALES, SHEENA B.                     00000000159927731300187       
3137032464GONZALO, JAMES M.                       00000000155678731300187       
1587120310GUNDAN, SHERLYN D.                      00000000291852915800187       
1587127020HITEROZA, JESSA MAE C.                  00000000000000015800187       
3137002450ICARO, ARIEL I.                         00000000088504531300187       
3137000651ILAGAN, SHIRLEY M.                      00000000065064131300187       
3137016981INGUILLO, RODIL T.                      00000000000000031300187       
3137002611IÑIGO, NOEL O.                          00000000034768831300187       
3137001283INOFERIO, JANET A.                      00000000000000031300187       
3137053950JARABELO, GEORGE J.                     00000000047850331300187       
3137001631JAVINAS, JOHN N.                        00000000295329531300187       
0706146172MANGULABNAN, LUCAS A.                   00000000203368707000187       
3137000503JIMENEZ, LEMAR L.                       00000000275499531300187       
3137092998FABIAN, GABRIEL                         00000000153845531300187       
3137031492LAGMAY, GLENDA D.                       00000000099274431300187       
3137000406LANDOY, SIEGFRED T.                     00000000239714831300187       
1587127446LAPID, OWEN PATRICK C.                  00000000291852915800187       
3137003499LAPINIG, TERESITA A.                    00000000182321831300187       
3137018879LAQUI, MARILOU D.                       00000000162902531300187       
3137004967LARA, ROLANDO D.                        00000000223114331300187       
3131009231LARDIZABAL III, MANUEL O.               00000000000000031300187       
3137015691LEONES, MAE L.                          00000000069904531300187       
1587126920LIMARE, RICHIE V.                       00000000000000015800187       
1587126830LISCANO, DOMNICK C.                     00000000142157615800187       
1587123319LIWANAG, PRINCESS CAMILLE G.            00000000166684515800187       
3137036800LONTOC, ANNELI R.                       00000000686638831300187       
0276113275LOYOLA, DARRYL L.                       00000000203368702700187       
3137006307MABAG, REYNALDO N.                      00000000038373831300187       
3137003235MAGBANUA, GRACE R.                      00000000000000031300187       
0577183465MAGHANOY, ROGELIO J.                    00000000000000005700187       
3137006129MAGLAJOS, ARMINDA L.                    00000000050824431300187       
3136029222MALABAG, MA. MARISA P.                  00000000490393731300187       
1587126857MALLARI, JOVELLE C.                     00000000024632515800187       
3137061723MANALASTAS, JEFFREY P.                  00000000020676531300187       
3136044744MANANGU, ROMEO BEN V.                   00000000282227431300187       
3137044489MANAOIS, MYRA M.                        00000000093411231300187       
3137000805MANGALILI, EDUARDO D.                   00000000369257531300187       
1447149970MANGILOG, MARGIE                        00000000048052014400187       
1587126865MARQUEZ, PRINCESS KARINA M.             00000000310289815800187       
3137005050MARRERO, ALAN P.                        00000000191150731300187       
3137039000MARZO, LOIDA J.                         00000000270306631300187       
3137060980MATIAS, IRUS JOHN T,                    00000000172135531300187       
3137038977MAYOR, DULCE CORAZON M.                 00000000137604531300187       
3137005092MAZON, LARRY J.                         00000000114677331300187       
2466159134MELLA, SARAH JOY T.                     00000000320289824600187       
3137048565REBADULLA, MA. JESUSA M.                00000000331758231300187       
1587129244MERCADO, ANA MARGARITA F.               00000000132222015800187       
3137003170MERCADO, PORFERIA P.                    00000000000000031300187       
3137061170MONES, ERWIN F.                         00000000042859431300187       
1587128078MONTAÑO, MARILYN T.                     00000000142289615800187       
3136041303MORANTE, LOREIN JOY                     00000000158014531300187       
3137039701NAVALETE, BRYAN ALVIN R.                00000000070426731300187       
3137003006NERI, MARITES A.                        00000000000000031300187       
3137044756NICOLAS, FLORED L.                      00000000025133331300187       
3137037385NICOLAS JR, LEOPOLDO I.                 00000000046626531300187       
3137031468NOVA, EVANGELINE L.                     00000000184904031300187       
3137001410NOVEDA, FLORANTE P.                     00000000000000031300187       
3137001615OIDA, JANET E.                          00000000050708531300187       
3137038985OLIVEROS, ROBERT G.                     00000000065634931300187       
3137003898ONANAD, CRISTINA S.                     00000000085427631300187       
3137061847ORANDE, RUBEN V.                        00000000023361531300187       
3137008113ORDINARIO, EVELYN S.                    00000000229676331300187       
1587113763FRADES, RUTH P.                         00000000131945315800187       
3136044000PAJARIN, JUSTINE BRYLLE T.              00000000205629531300187       
3136029931PAMATMAT, GILL N.                       00000000291852931300187       
3137002220PANGILINAN JR., FELICISIMO D.           00000000496893731300187       
3137001224PAROCHA, TERESITA C.                    00000000064918231300187       
3137043334PASCUAL, FLERIDA P.                     00000000107600431300187       
3137048662PAYABYAB, JOHN PAUL E.                  00000000205150731300187       
3137015136PERVERA, MELVIN B.                      00000000114718931300187       
1587121952PILLE, JACQUELINE S.                    00000000024648515800187       
3137043490PINEDA JR. HONRADO M.                   00000000000000031300187       
3137002670PONTILLAS, ROWENA P.                    00000000235714831300187       
1587128361PRIMITIVO, ENRICO O.                    00000000061712915800187       
3137061693PAGUIO, MARRIELLE P.                    00000000023047631300187       
3137033274QUEBEC, ANTHONY HARBIE R.               00000000184351131300187       
3137046945QUERIJERO, CHRISTOPHER FLOYD            00000000205150731300187       
1586625450QUIJANO, AARON MOSES Y.                 00000000130521315800187       
3137000384QUINCE, ELVIRO D.                       00000000000000031300187       
3137038187RAMOS, CELESTE D.                       00000000194368731300187       
0666127340RAMOS, PATRICIA ANNE G                  00000000188368706600187       
0137276380REBADULLA, NATHALIE A.                  00000000148845501300187       
3137000465REYES, EDWARD C.                        00000000000000031300187       
0557135502REYES, KRISTIAN D.                      00000000065268305500187       
1586615986REYES, MARK A.                          00000000496893715800187       
0516004088VIRTUDAZO, RIZALITO M.                  00000000174662305100187       
3137002158VISTA, ROSALIA T.                       00000000230974931300187       
1587115367WASHIO, JANET M.                        00000000158408915800187       
3137001720WILSON, LORETO V.                       00000000000000031300187       
3137018585YJARES, DOROTEO JOSE D.                 00000000000000031300187       
3137005696ZAPATA, GINA M.                         00000000270969531300187       
3137033053ZAPATA, SANTY M.                        00000000216485231300187       
3137049596ZARATE, LEWIS ACE M.                    00000000036990231300187       
3137038179ZULUETA, MARY GRETTE E.                 00000000088110931300187       
3137002689TAMPUS, FRANCISCO O.                    00000000069576031300187       
3137002700TAMPUS, MARISA A.                       00000000105992331300187       
3137004045TAPAR, EDNA C.                          00000000000000031300187       
3137012501TAPAR, JUANITO JR. D.                   00000000194918231300187       
3137001240TAYCO, PRISCILLA D.                     00000000032519631300187       
3137081252BUENAVENTURA, MARIAN S.                 00000000000000031300187       
3137044683TIONGSON, RAUL M.                       00000000000000031300187       
1587130080PASCUAL, KATHLEEN A.                    00000000220485215800187       
3776093415CANLAS, LALAINE T.                      00000000096658337700187       
3136042156LARGO, CHAMBERLENE PRINCE               00000000083383031300187       
1587130021SABEROLA, ANN SHERRY S.                 00000000175403615800187       
0687119193REYES, MARY BERNADETTE E.               00000000194878106800187       
1587130110PANGANIBAN, TRISHA MARIE P.             00000000162004915800187       
0706180907RAVIZ, JENNALYN G.                      00000000467919007000187       
1587130030CORTEZ, JEFFERSON P.                    00000000030424915800187       
3137046511SORIANO-BOLASOC, RECHELLE JOYCE C.      00000000084328231300187       
3137000511SUBIDO, EMILIO G.                       00000000000000031300187       
3137000341SUGUITAN, LOURDDIE L.                   00000000121656131300187       
2026917797SUNGGOD, NORFATIMAH D.                  00000000000000020200187       
3137001097TADEO, PAMELA B.                        00000000286329531300187       
3137001747TAGUIAM, CATABRIMA M.                   00000000000000031300187       
0277215179TALENS, EDIELYN V.                      00000000060929902700187       
3137078057ABAD, JEFFERSON V.                      00000000000000031300187       
3137050810BENDOY, MARITES S.                      00000000060078331300187       
1586624870CORPUZ, DONNA CRIS P.                   00000000215452715800187       
2717050161DIAZ, MAUREEN L.                        00000000189702627100187       
3137081317GESMUNDO, JONATHAN P.                   00000000000000031300187       
1777094064MALDO, JAN ERNST S.                     00000000189702617700187       
2486134375NAVETI, ERLYN M.                        00000000142901024800187       
3137081473PANES, COLEN P.                         00000000059047831300187       
1587114263VILLARDE, JR. JOSUE N.                  00000000127527515800187       
2477035895VIRTUCIO, PRECIOUS DIANE L.             00000000103583824700187       
3137018747TOPACIO, PHILIP NINO P.                 00000000198594831300187       
3137037806TORRERO, CESAR G.                       00000000047698631300187       
3137054131LIM, ROBERTO C.                         00000000745073331300187       
0497113261AQUINO, JORJETTE B.                     00000000000000004900187       
3137081201SARMIENTO, ELMER FRANCISCO              00000000745073331300187       
0017308866BERNARTE, MARILOU C.                    00000000000000000100187       
1576199224DIZON, MIGUEL MARTIN M.                 00000000150280515700187       
1587129759LINTAG, REGINA JULIANNE C.              00000000179702615800187       
0677122897CORTES, LALAINE P.                      00000000282633006700187       
1525063794RODRIGUEZ, ESMERALDA D.                 00000000156610515200187       
1587129856CALMA, JUNEL D.                         00000000216485215800187       
0717082249LAMBOON, IRIS NICOLE G.                 00000000000000007100187       
0597215703FAUSTINO, DONNA PATRICE S.              00000000127527505900187       
1587130145MAPILI, MICHELLE STEFFI D.              00000000220485215800187       
3136044019TORRES, JESSICA MARIE P.                00000000190634431300187       
3137052490TUGELIDA, JENNILYN V.                   00000000296642031300187       
1506129032UMANDAP, BRIAN JAYSON P.                00000000082134715000187       
3736010703UNTALAN, CHARMAINE MIKEE L.             00000000166684537300187       
3137000694USON, JASMIN MARIE C.                   00000000227701831300187       
3137061030VALENCIA, JONAS Q.                      00000000083421831300187       
1517078740DOMINGO-TORDESILLAS MARIA PAULA B.      00000000613721415100187       
1587122746VALEZA, ELISHA GENEVEIVE                00000000000000015800187       
0717082176MARUZZO, MARY GRACE N.                  00000000220485207100187       
0087352919GOPEZ, MURFFY P.                        00000000262946200800187       
3136042172SIMBRE, KENNETH B.                      00000000102475731300187       
3136047140ZAENS, KAREN B.                         00000000203368731300187       
3136041761BUTRON, PRINCESS MAY M.                 00000000354051031300187       
3137039540CRUZ, JEROLD JAMES B.                   00000000155193631300187       
3137023422DISCAYA, DARWIN E.                      00000000154810331300187       
0236131475FELIX, ARMANDO RAFAEL C.                00000000130110002300187       
3136044582BERIN, MA. BETHZAIDA A.                 00000000141192631300187       
3076101166NAVARRO, ERIKA JOY M.                   00000000242644930700187       
3137081619TUÑACAO, GELBERT C.                     00000000110499631300187       
3137081600TUÑACAO, JESUS JR. C.                   00000000054635931300187       
0227083778DOJILLO, LEX N.                         00000000266392402200187       
1556188412PASTORES-POLIQUIT, CHERIE MAY D.        00000000266392415500187       
0696116482RIVERA, GEMALYN B.                      00000000175895206900187       
3137081686SANTOS, JASON KARLO M.                  00000000187621431300187       
0586135929SAPITIN, VERONICA C.                    00000000155393705800187       
1587113607TAGAYONG, ELREJIE                       00000000046288615800187       
1777107174ALPUERTO, ROMINA MAE R.                 00000000203566117700187       
1776065273GONZALES, JESUS NATHANIEL M.            00000000680377317700187       
1586616117RODRIGUEZ-SAGAD, INAH R.                00000000086658315800187       
3137004487ROMERO, NITA B.                         00000000000000031300187       
3137012420ROSINO, ALEJO R.                        00000000044658431300187       
1587128868GONZALES, FRANCIS BIEN N.               00000000179005115800187       
1587125966GUBA, RENALYN C.                        00000000124045215800187       
3137078243JAMORA, ALVIN P.                        00000000181846531300187       
1517128798LAGASCA, JOMAHC AQUILINE E.             00000000220485215100187       
3137083638CAYABYAB, DIANNE MICHELLE               00000000156403831300187       
3137083670OFIANA, ANNE KLEIN                      00000000125027531300187       
1597055508GIMPAYA, ISAIAH JAYE                    00000000164541215900187       
1556189923PUSING, MARY JOY R.                     00000000000000015500187       
3137083662PANOTES, JOHN PAUL G.                   00000000106078031300187       
0557159711TAMAYO, MARVIN GERARD                   00000000110814505500187       
3136052321LASALA, SHANTEE S.                      00000000266392431300187       
3137084707LUMBIS, EVELYN ANTONNETE                00000000266392431300187       
3137084782PASCUA, JEMMARIE                        00000000000000031300187       
1807020869PEJI, ERICA I.                          00000000242288818000187       
1517141379BANGUILAN, JAN EVETTE C.                00000000132694915100187       
3097062829GUILOT-SALARDA, ALIZA MARIE             00000000354051030900187       
1847011749TAPAR, JANIS C.                         00000000089535118400187       
0287382367VILLAFUERTE, JOSHUA FERDINAND           00000000203368702800187       
3136045350CERVANTES, FRECY A.                     00000000127527531300187       
3136045830SAN DIEGO, CHARISSE ANNE                00000000189702631300187       
3137083522TAGUIAM, GABBY B.                       00000000049551031300187       
3137078154AGNER, MARION R.                        00000000127527531300187       
3136051210AGUILAR, PHILIP ELEAZAR                 00000000000000031300187       
0666167872ALIPININ, MARTINA YSABEL                00000000165280506600187       
3716046574ALON, CARL ANGELO                       00000000165280537100187       
2726230342ALQUIRES, JOSEPHINE D.                  00000000165280527200187       
3136046798CARO, JASON M                           00000000000000031300187       
0436292392DE GUZMAN, HEIDE A.                     00000000165280504300187       
3136050922DE PEDRO, ADAM CARLO                    00000000165280531300187       
2696138454DEDASE, LUCELYN LEI                     00000000165280526900187       
2376320599ESPIRITU, CHRISTIAN ROBERT              00000000165280523700187       
0536123911INFANTE, FRANCHESKA ARAIDNA             00000000165280505300187       
3136042873MALLARI, FELIPE III                     00000000000000031300187       
2777039493OBIAS, NICOL LEO                        00000000165280527700187       
2916143357RANOLA, KLAUS JEWEL                     00000000165280529100187       
3136048960SACUPASO, JULIO III                     00000000165280531300187       
1496250334SAN GASPAR, DAN LESTER                  00000000162004914900187       
4756021120TALAMPAS, JANNA MISHAEL                 00000000165280547500187       
0016167533VALOIS, WILLVIN A.                      00000000162004900100187       
3137084499PURA, BENJAMIN JR                       00000000073416131300187       
1846040109TOCAYON, JOANA MARIE                    00000000116216318400187       
0497113172REGINO, JEREMY                          00000000000000004900187       
1867115702FRENCILLO, ANGELI M.                    00000000235662318600187       
1517079215GISMUNDO, ARWONDER-V                    00000000267271615100187       
1466067101HIDALGO, MARIE KOREEN C.                00000000304051014600187       
3077102735YAP, JOSE GABRIEL M.                    00000000291852930700187       
3136048561MALTOS, MARCK EDISON P.                 00000000127527531300187       
1517176725NARCISO, MARIEN S.                      00000000266392415100187       
3137093560UMALI, ANGELIA FE L.                    00000000153848031300187       
3137093030BRION, JOHN AARON E.                    00000000177135531300187       
3136052194TABANQUERAO, RONALD M.                  00000000127527531300187       
3136064087AQUINO, MANOLO PRINCE JR. A.            00000000000000031300187       
3516030789HAO, ULRIKKA C.                         00000000000000035100187       
0287338244JALOBER, JUAN A.                        00000000291852902800187       
3137093579ISIDRO, LARRIZE MAE C.                  00000000127527531300187       
3137085720DELGADO, AL VINCENT MA G.               00000000239338131300187       
1987286519MENDOZA, MARVIN JOSHUA B.               00000000134464119800187       
3137093803BERNAL, JOHN DERON D.                   00000000082814031300187       
3137093749MALLARI, CHRISTELLE KATE T.             00000000165280531300187       
0666168399CASTILLEJO, GAUDENCIA A.                00000000000000006600187       
3136042164NICOLAS, DARWIN F.                      00000000101658331300187       
3775017049SILASTRE, RIZZA JOY                     00000000220485237700187       
3137085479VARGAS, PRINCESS JAMIE                  00000000082814031300187       
3137085690CRUZEM, VINCE DANIEL                    00000000110879431300187       
3137085738VALENCIA, ROVIE J.                      00000000082814031300187       
3137085410DOMINGO, JOMEL EZEQUIEL                 00000000000000031300187       
2887027709NAZARREA, MYRA L.                       00000000266101228800187       
0717102789ORTEGA, JESUS FERDINAND D.              00000000680377307100187       
0677123095CID, MARIA CELESTE ANGELA C.            00000000093806306700187       
0666132254ROLDAN, DANIELLE HAZEL F.               00000000266392406600187       
3137085681AUSTRIA, CHRISTIAN MIGUEL A.            00000000266392431300187       
3136051228ORTEGA, JHASMIN S.                      00000000127527531300187       
1587130048BASCO, RAMIL T.                         00000000064988115800187       
3137092769LUYUN JR ORLANDO R.                     00000000165280531300187       
3217040549ARIZABAL JR., ALEXANDER G               00000000291852932100187       
3717037935CRUZ, NICHOLE ANN T.                    00000000000000037100187       
3136045341CRUZ, SUSANA M.                         00000000266101231300187       
0557171231DIAZ, GILLYN MAE R.                     00000000165280505500187       
3137093404LAROYA, AARON CHRISTIAN C               00000000000000031300187       
2057073341PARRILLA, JACKIELYN M.                  00000000165280520500187       
0487039985TUÑACAO, JENNIE C.                      00000000073416104800187       
1246143800SAHALI KADER YUSEF S.                   00000000127527512400187       
3137093315SINIEL, APRYL LALAINE G.                00000000165280531300187       
0706160450BAUTISTA, MARVIC ANGEL C.               00000000165280507000187       
3136052500BAYOT, FIONNA JEAN B.                   00000000127527531300187       
1866181728AWIS, SALIMA B.                         00000000196868718600187       
3136048316BALCERA, JOSHUA ALEX A.                 00000000203368731300187       
0707183179CRUZ, DENISSE SHARMAINE B.              00000000182459607000187       
0206327073DECENA, MARK GREGORY P.                 00000000203368702000187       
3076100321DELA CRUZ, JOHN MICHAEL B.              00000000203368730700187       
2886262062DELA CRUZ, JOVY ANN S.                  00000000203368728800187       
3136041940EVANGELISTA, KLARIZE MAE B.             00000000203368731300187       
1517162252GAUDIEL, GIANNE PATRICIA D.             00000000189702615100187       
1466055138ALFONSO, JR. RICARDO E.                 00000000671271314600187       
3137083530AQUINO, ANGELIKA KYLE V.                00000000127527531300187       
3136039996GABUT, MARIA BRIDGET M.                 00000000000000031300187       
3137082070MURALLOS, CLARA ANGELA R.               00000000000000031300187       
3137061367ABUGHO, ARIANE CRYSTAL VINE             00000000266392431300187       
3137042931SIBUNGA, EMIL PAOLO Q.                  00000000000000031300187       
3137003804TAGADTAD, ADELIO R.                     00000000112928931300187       
1587149318PORCIUNCULA, CZARINA G.                 00000000098767515800187       
0576133928TAYAWA, GLENDO M.                       00000000000000005700187       
2426202088MORALES, CRISTY D.                      00000000077814024200187       
3136031723CALANAO, ERWIN J.                       00000000083806331300187       
3137001305BASQUINA, ANNALEEN L.                   00000000092902131300187       
3216135384CUSTODIO, ABEGAIL *                     00000000146560032100187       
3407123262ALATA, JOHN MARTH V.                    00000000109684834000187       
2477022580ALGADO, ROSELLA C.                      00000000203368724700187       
0687086422RADIAGANDING, ISRAEL A.                 00000000360640606800187       
3137053615SORIANO JR., AGUSTIN B.                 00000000178167431300187       
3137078251VILLAFLOR, JOHN MELVIN M.               00000000000000031300187       
1587149245DIAMETAS-TAJONERA, MARGIE P.            00000000000000015800187       
1987354999SEÑA, DANIEL FRANCO D.                  00000000220485219800187       
1786090543CAPISTRANO, JANINA MARIE C.             00000000354051017800187       
3137075759FLORENDO, JOSE NOEL G.                  00000000203368731300187       
1587124145SALVADOR, ARLAN B.                      00000000147074415800187       
1587128272RAGAZA, ROXANNE                         00000000165280515800187       
1587130471YABUT, MARTHA KATALEEYA T.              00000000127527515800187       
4126024954TORRES, JESSICA M.                      00000000165280541200187       
3137034246TIMBANG, LIZA V.                        00000000057136131300187       
0106244359ANGELES, ALAN C.                        00000000073951001000187       
3137083018GADOR, RENZ JONAS H.                    00000000113419731300187       
3136042075DE LOS SANTOS, JAYSON L.                00000000059857931300187       
1586625248PEREYRA, RICCI ALESY C.                 00000000115761315800187       
1587126440ROBLES-FABRO, AMARRA A.                 00000000243740715800187       
3137081546CARINO, QUENCESS CAMILLE N.             00000000192593131300187       
1586624861ACOSTA, JOANNA MARIE B.                 00000000157423515800187       
3136039260DE VELEZ, LEONEL CRAY P.                00000000613721431300187       
0827116262MANAOIS, PAUL CHRISTIAN U.              00000000203368708200187       
0696119660FLORES, GLEN GEM P.                     00000000203368706900187       
2816297063GERALDINO, ARMAN B.                     00000000171319028100187       
3136043756IGAYA, RAY STEFFI MONIQUE V.            00000000203368731300187       
3136043730LAPEZ, JOAN B.                          00000000203368731300187       
1626139902MALLORCA II APOLONIO D.                 00000000173477916200187       
3136048596MEDINA. DIXIE ANN S.                    00000000203368731300187       
0486126540OLAGUERA, ELAINE GAIL B.                00000000192154104800187       
0677135727QUERO, MARK ANTHONY Y.                  00000000189245206700187       
3137082585COLOBONG, MARIA ROSALYN W.              00000000000000031300187       
3137081430BARRETTO, ALECS LEE C.                  00000000081741631300187       
3777031880SISON, MELANIE D.                       00000000081839137700187       
3137081929IBUYAN, JOYCE M.                        00000000000000031300187       
1686207575MANANON, MARIA JESUSA R.                00000000124251916800187       
0626153836MACABUHAY, JR. BIBIANO A.               00000000000000006200187       
1416289057TORRES, JHENNYZELLE *                   00000000000000014100187       
3137082968TUBALLAS, PIBE ROSE                     00000000105992931300187       
3137000759SANSOLIS, NATIVIDAD P.                  00000000000000031300187       
1587126652SANTIAGO, HENRY G.                      00000000223114315800187       
3137001046SANTIAGO, NOLAND C.                     00000000127918831300187       
3137002956SANTOS, MARISSA F.                      00000000023776431300187       
3137003774SANTOS, VIRGINIA CORAZON L.             00000000000000031300187       
3077104835SIGUI, WALLESTEIN L.                    00000000216852930700187       
3137083506BAUTISTA, GRACE C.                      00000000107376931300187       
3137081880SANCHEZ, JONATHAN D.                    00000000000000031300187       
3136042008CASIPLE, RENZ CHARLES A.                00000000101658331300187       
2517146539QUINTO, EVA MARRIEN W.                  00000000220485225100187       
3137081945SALVADOR, JUSTIN ROI D.                 00000000000000031300187       
3137042036SALVADOR, JENNIFER C.                   00000000008749431300187       
3137048204SALVADOR, RENIER D.                     00000000027455631300187       
1587123130TEVES, VANESSA MARIE G.                 00000000189108715800187       
1517128186MANZANO, RYAN CHRISTOPHER               00000000290852915100187       
3137078170MATEO, LEO CHRIS M.                     00000000163666031300187       
3136043446JAVIER, MARIENEL V.                     00000000187143631300187       
3137081988ACEBES, DANTE G.                        00000000000000031300187       
1587121227ECO, GRACE ANNE P.                      00000000160344015800187       
3457148584GALENDEZ, CHRISTEL JOY B.               00000000107518034500187       
1586617563RIVERA, ANDREA NICOLE P.                00000000496893715800187       
3137003308ROBERSON, MILAGROS C.                   00000000095286431300187       
3136051996PASCUAL, JOHN PATRICK L.                00000000127527531300187       
3136047310BALONKITA, JUS CRISTEN G.               00000000203368731300187       
3137084251VILLAR, MICHAEL JOHN Y.                 00000000242644931300187       
1696236190FULIG, DOMINADOR II C.                  00000000141563116900187       
0577204411ESTIPONA, MARIE ANGELIQUE               00000000203368705700187       
0086260662CADIZ, SUNCRIS B.                       00000000271685700800187       
3137073713MATIGNAS, CHRISTIAN L.                  00000000184564631300187       
3137078065MONTES, JOHN MELCHOR C.                 00000000178662331300187       
3136044590NULLAR, RHODOLPH C.                     00000000205150731300187       
1587129490RAMOS, MARIA EVELYN A.                  00000000535440515800187       
3756011463GALERO-CORPORAL, MARGIE P.              00000000183151437500187       
3137017880ILUSORIO, ANNA VICTORIA E.              00000000291852931300187       
3516080085MACAM. BRYAN JOHN R.                    00000000234609335100187       
3137082100MALONZO, MARK LAURENCE D.               00000000000000031300187       
1587124919MARINAS, CHARMAINE F.                   00000000099158315800187       
3137082178VALBUENA, VALENTINO T.                  00000000141609231300187       
3137082097BORRICO, HANNAH S.                      00000000082816931300187       
0576139080DIVINA, ANN MARGARETTE A                00000000156129705700187       
0087194760RAZON, AARON JOREL Y.                   00000000152961900800187       
3137043938LAURENCE, RAMIR S.                      00000000151595031300187       
3137033738TUBO, MADONNA D.                        00000000124538631300187       
3136043063CAINGAT, CARL ANGELO B.                 00000000098382731300187       
3137034599NALANGAN, MARIA MARILYN N.              00000000000000031300187       
3217056780ESPAÑA, MARK FRANCIS S.                 00000000161203732100187       
3137081970ISTURIS JR., GELDION E.                 00000000082814031300187       
1056364737ALFILER, NICOLE S.                      00000000000000010500187       
3137081244ROBES, MARIA CECILIA G.                 00000000000000031300187       
3137081236TOMAS, MARIA SHEILA T.                  00000000000000031300187       
2376278746APACIBLE, LUISITO D.                    00000000259760823700187       
3137093307TAGLE, MARLO V.                         00000000000000031300187       
3137093293ARCA, PAULYNE R.                        00000000203368731300187       
6536014703ADDURU, JERHMY IAN                      00000000266392465300187       
0677134119DE ROQUE, ROBERT JAMES T.               00000000279577306700187       
0597213026BARRIOS, JONATHAN RICHARD               00000000111347305900187       
0677118636VIZCONDE, VIC ANGELO G.                 00000000203368706700187       
1846039844FLORES, ANNA KATRINA P.                 00000000127527518400187       
3137093536EBUENGA, JAYPEE                         00000000093806331300187       
3137093153LEE, WILFREDTHOMAS D.                   00000000128583931300187       
1587128612MAGAT, KELLY D.                         00000000165280515800187       
3137093145ARDAN, AILENE E.                        00000000165280531300187       
3137070234GONZALES, ALBERTO L.                    00000000045726531300187       
3137093056MENDEZ, IVAN MHAR L.                    00000000220485231300187       
3136051880CLEOFE, NANCY B.                        00000000093806331300187       
0626145370NARCISO, BERNADINE A.                   00000000291852906200187       
3136051430CHAVEZ, JB APOLONIO O.                  00000000160280531300187       
3137093943ANTALAN, JOANNE V.                      00000000127527531300187       
3866082447IMPERIAL, RONALD M.                     00000000203368738600187       
3137093960MANGALINO, MA. ROSARIO Q.               00000000127527531300187       
3137093846TOLENTINO, CAMILLE ANGEL A.             00000000157670531300187       
3137093820LERONA, CHADROSE C.                     00000000220485231300187       
1687422771RUIZ-TICOY, MA. LORENZA IZZA            00000000220485216800187       
1436190030SERRANO, ARCHIE M.                      00000000203368714300187       
3137078049GARCIA, KERT JOHN S.                    00000000173859931300187       
3137078278GERADELA, ELGIN M.                      00000000125253531300187       
3137043202ROM, JESSICA R.                         00000000127527531300187       
3137082054ESCALANTE, MICHAEL J.                   00000000203368731300187       
0576133057SEGUNDO, MA. ANGELICA M.                00000000000000005700187       
1517061294LAZO, MELODY P.                         00000000258783015100187       
3137082046LIBUNAO, CARLO M.                       00000000220485231300187       
1897129490LAMAR, KIMJAY M.                        00000000354051018900187       
3137077174LAPIDARIO, KELVIN L.                    00000000157355131300187       
3717021788DUKA, JONNIE L.                         00000000165280537100187       
0597221037GIBAGA, KIA F.                          00000000143631905900187       
0706177604MANANQUIL, CHARLOTTE B.                 00000000203368707000187       
1586620459GONZALES, JELYN L.                      00000000000000015800187       
1517136960DE GUZMAN, IVY JOY S.                   00000000242644915100187       
3137062096YEBRA, REINIER R.                       00000000000000031300187       
1587119842VENTURA, CARMELA D.                     00000000000000015800187       
1587126288VERANO, JOSEPH JAMES A.                 00000000066091315800187       
1587121960VILLA, BEA TRISHA R.                    00000000166684515800187       
3137081961VILLACORTA, HECTOR A.                   00000000671271331300187       
3136051180YANO, JULIUS A.                         00000000613721431300187       
3217036606SANTOS, MARIA CHELO E.                  00000000256609732100187       
3137054867APELLIDO, ERIC B.                       00000000137687531300187       
3136045570GOCO, EISEN LOWELL A.                   00000000291852931300187       
3136044124GONZAGA, KERBY M.                       00000000203368731300187       
3137079177GONZALES, EZEKIEL A.                    00000000193368731300187       
3137042664FERRER, JOSEPH ISHMAEL                  00000000354051031300187       
3137045990MENDOZA, MIKAELA ELOISA                 00000000291852931300187       
3137083794LIM IV, JOSE F.                         00000000665868731300187       
1426172360ARZADON, MARIA CAROLINA P.              00000000295329514200187       
3137076186AUSTRIA, LEO B.                         00000000196589731300187       
3137078227BACTAD, MARIOL MIGUEL R.                00000000183606031300187       
3137082887GRICALDA, PETER JOHN B.                 00000000000000031300187       
3136039368VILLAMAYOR, EDISON S,                   00000000125821731300187       
3137082143HULLEZA, JOSE MARI A.                   00000000165280531300187       
3136050892MARTINEZ, ALLYSA NICOLE M.              00000000127527531300187       
3706180418MOSAID, JAMIR S.                        00000000180502537000187       
3137093978ABARQUEZ, RICKY R.                      00000000073416131300187       
1467106992RONULO, JONATHAN B.                     00000000680377314600187       
2375080500GODILO, KRIZZA MAY A.                   00000000082814023700187       
0017460480DE LOS REYES, CHRISTINE                 00000000266392400100187       
2466154132FULLECE, JESSETTE S.                    00000000000000024600187       
3137085436LOPEZ, NIÑO PAULO A.                    00000000110879431300187       
3136041915BONTO, NEIL GABRIEL G.                  00000000220485231300187       
3137042915LUA, JOMAR R.                           00000000553940531300187       
3136008756VILLASENOR, AURORA V.                   00000000155193631300187       
3137040173VILLASQUEZ, JOHN PAUL V.                00000000152765831300187       
3137044950VIÑAS, JOANA MAY M.                     00000000044380931300187       
3137003588SANGALANG, REYNANDO B.                  00000000000000031300187       
3137078235LEGASPI, JOHN REY M.                    00000000000000031300187       
3136044663MAKILAN, JULIAN MARC A.                 00000000205629531300187       
1517139188MANUEL, PAOLO T.                        00000000291852915100187       
1687421325ARIAS, CHLOE CATRINA Q.                 00000000106036916800187       
3137046864BARBARONA, RAYMUNDO C.                  00000000077988831300187       
3137001844BULACTIAL, DENNIS N.                    00000000127527531300187       
3136046259CLEMENTE, ARLENE B.                     00000000189702631300187       
3137079487DALUPANG, JULIUS CAESAR B.              00000000039985331300187       
3137082151DELOS SANTOS JR. PAQUITO M.             00000000070140531300187       
3137082194EUGENIO, KATRINA P.                     00000000000000031300187       
3137001895SIN, RIZALINO O.                        00000000214396631300187       
1587119834SISCAR, APRIL MICHELLE S.               00000000114405815800187       
1586616419SISON, FRESH AIRA L.                    00000000162684515800187       
3137055812SABALO, MARVIN H.                       00000000135105431300187       
3137015497SALONGA, EVANGELINE E.                  00000000061056031300187       
1587129554JUAN, JULIET ELLIESA C.                 00000000165280515800187       
3137082305IMPA. JASMIN N.                         00000000000000031300187       
3137082674ROMERO, RICARDO O.                      00000000318992331300187       
0017245503BARANGTAY, CARLO NIEL P.                00000000164980600100187       
3137000775SORE JR., ABELARDO. D.                  00000000354051031300187       
1587129694GANDO, MIGUELITO V.                     00000000048725215800187       
1587131044ARCA, JR. ERNESTO I.                    00000000202133415800187       
1587130811GARCIA, GLENN LUIGI P.                  00000000203368715800187       
3137037849DEL ROSARIO, JENNIFER D.                00000000278182931300187       
3137081333MANLICLIC, MARIO G.                     00000000077988831300187       
1777121525COROÑA, REXSON JAY R.                   00000000082814017700187       
3137081228BAUTISTA, JAIME J.                      00000000000000031300187       
3137081350ESQUIVEL, ENRIQUE ANTONIO III           00000000000000031300187       
1777094277LAGUERTA, JOEL C.                       00000000496893717700187       
1587129732MARGARITO, GRAY S.                      00000000033454715800187       
3137061715PACIA, EMERSON G.                       00000000030764531300187       
1587121855PANGAN-VILLA AGUSTIN,CHLARIZEL DIANNE H.00000000159435115800187       
1587129384BELARMINO, JOSE A.                      00000000205629515800187       
3137081511CHICANO, CHRISTINE S.                   00000000291852931300187       
0577208964MALLANNAO, RODERICK R.                  00000000147034505700187       
3457002326MONDRAGON-GAWARAN, MARIANNE M/          00000000226987334500187       
3137077271PAGDATO, FLORVIN JAY L.                 00000000110879431300187       
3136045228LEDESMA, JAMES KEBI D.                  00000000205150731300187       
3136051368SAMPANG, OTOMO MICHIKO C.               00000000053106031300187       
2055045987CEMANIA, KIMBERLY L.                    00000000082814020500187       
1517169699SALAO, ROBERT IRVIN D.                  00000000266392415100187       
3077169325VERZOLA, CHRISTIAN EMMANUEL             00000000165279830700187       
2376327992FLORES, CHRISTAR M.                     00000000203368723700187       
3136051244GENSON, PAUL DOMINIC O.                 00000000320289831300187       
1467107018ALMINIANA, JERIC S.                     00000000077988814600187       
1467091537CUARESMA, KENN JAY J.                   00000000242644914600187       
1467107000RONQUILLO, ENGEL CYRYL                  00000000189702614600187       
0486114568EVANGELISTA, KRISTIAN RAY O.            00000000165280504800187       
0567096343REAL, KEITH A.                          00000000127527505600187       
3137062053BATAN, TIMOTHY JOHN R.                  00000000680377331300187       
1586608726TIATCO, MARIE FRANCE C.                 00000000613721415800187       
1587122720ROXAS, PATRICK JOSE C.                  00000000161409915800187       
1587128388SABADO, JONYLEN H.                      00000000165280515800187       
1306084719PINEDA, KYSIA C.                        00000000161280513000187       
1697100055ESTACION, JORAMELLE M.                  00000000101658316900187       
3137083042MELAD, JAMES ANDRES B.                  00000000671271331300187       
9999999999DEPARTMENT OF TRANSPORTAT000000987323693000010067109838887000642 00187
